:020000040800F2
:10000000300800209D010008CB0E00086D0D00088F
:10001000C90E000845050008850F00080000000013
:10002000000000000000000000000000CF0E0008EB
:100030004705000800000000CD0E0008D10E0008A2
:10004000B7010008B7010008B7010008B7010008B0
:10005000B7010008B7010008B7010008B7010008A0
:10006000B7010008B7010008B7010008B701000890
:10007000B7010008B7010008B7010008B701000880
:10008000B7010008B7010008B7010008B701000870
:10009000B7010008B7010008B7010008B701000860
:1000A000B7010008B7010008B7010008B701000850
:1000B000B7010008B7010008B7010008B701000840
:1000C000B7010008B7010008B7010008B701000830
:1000D000B7010008B7010008B7010008B701000820
:1000E000B7010008B7010008B7010008B701000810
:1000F000B7010008B7010008B7010008B701000800
:10010000B7010008B7010008B7010008B7010008EF
:10011000B7010008B7010008B7010008B7010008DF
:10012000B7010008B7010008B7010008B7010008CF
:10013000B7010008B7010008B7010008B7010008BF
:10014000B7010008B7010008B7010008B7010008AF
:10015000B7010008B7010008B7010008B70100089F
:10016000B7010008B7010008B7010008B70100088F
:10017000B7010008B7010008B7010008000000003F
:10018000B7010008B7010008DFF80CD000F0C8F98B
:1001900000480047B1150008300800200648804795
:1001A00006480047FEE7FEE7FEE7FEE7FEE7FEE75C
:1001B000FEE7FEE7FEE7FEE7690F00088901000899
:1001C0002DE9F05F0546002092469B46884606468C
:1001D000814640241BE0284641464746224600F01F
:1001E0001FF953465A46C01A914110D3114618467A
:1001F000224600F006F92D1A67EB01084F46224609
:100200000120002100F0FDF817EB00094E41201EEF
:10021000A4F10104DFDC484631462A464346BDE8E6
:10022000F09FD2B201E000F8012B491EFBD27047CB
:100230000022F6E710B513460A4604461946FFF7B2
:10024000F0FF204610BD421C10F8011B0029FBD115
:10025000801A70472DE9FE4F804681EA0300C00FE7
:100260000C46009021F0004123F00045B8EB02005D
:10027000A94105D24046214690461C460B460246FF
:1002800023F00040104347D0270DC7F30A00C3F303
:100290000A510290401A019040286BDAC3F3130010
:1002A00040F4801B0098924620B10023D2EB030A51
:1002B00063EB0B0B01985946C0F14002504600F029
:1002C000A0F806460D4650465946019A00F0B8F887
:1002D00010EB08006141002487EA115284EAE773B9
:1002E0001A4340D0009A62B3019A012A4FEA07529A
:1002F00015DC001B61EB02014FF0004202EA0752DD
:10030000CDE90042001C41F5801132462B4600F039
:10031000B8F803B0BDE8F08F40462146F9E7001B6E
:1003200061EB0201001C41F5801300185B412018AD
:10033000A2F5001747EB030140EAD570B6196D41ED
:1003400011E06D084FEA360645EAC0754FEA0752DC
:10035000001B61EB0201001C41F5801149084FEAC6
:1003600030000019514132462B4603B0BDE8F04F32
:1003700000F078B80098012240000023D0EB020280
:1003800063EBE073009821464FEAE074B8EB00009D
:1003900061EB0401E9E783F000435BE781F0004192
:1003A00058E70EB5C10F80EAE0700844CA07002183
:1003B00040F233438DE80E000A460B4600F061F828
:1003C00003B000BD70B5C1F30A5201F0004500242E
:1003D000C1F3130140F2FF3341F480119A4201DA74
:1003E000002070BD40F233439A42A2F2334203DC54
:1003F000524200F015F800E090402C43F1D040420A
:1004000070BD202A04DB203A00FA02F10020704778
:100410009140C2F1200320FA03F319439040704742
:10042000202A04DB203A21FA02F00021704721FA49
:1004300002F3D040C2F120029140084319467047B0
:10044000202A06DBCB17203A41FA02F043EAE07398
:1004500006E041FA02F3D040C2F120029140084385
:100460001946704710B5141E73F1000408DA401CD9
:1004700041F1000192185B411A4301D120F00100C3
:1004800010BD2DE9F04D92469B4611B1B1FA81F2B3
:1004900002E0B0FA80F220329046FFF7B2FF044645
:1004A0000F4640EA0A0041EA0B0153465A46084308
:1004B00013D0114653EA010019D0C8F1400250464A
:1004C000FFF7AEFF05460E46504659464246FFF737
:1004D00098FF084305D0012004E020463946BDE8D6
:1004E000F08D0020054346EAE0762C4337430A9816
:1004F0006305E40AA0EB08000022FD0A44EA475421
:100500000A3002D500200146E9E7010510196941CA
:10051000DDE9084500196941BDE8F04DA2E700009A
:10052000064C074D06E0E06840F0010394E8070040
:1005300098471034AC42F6D3FFF72AFEB81C0008E7
:10054000D81C0008FEE7704770B5044600F0F0F8CC
:100550000546601C02D004480078044400F0E8F826
:10056000401BA042FAD370BD1C0000202DE9F84FBB
:1005700000224FF0010803254FF00F0E0B6808FA18
:1005800002F42340A3426ED14E68012E05D0022E04
:1005900003D0112E01D0122E12D186684FEA420CE0
:1005A00005FA0CF7BE43CF6807FA0CF737438760AC
:1005B0004668A6430C79C4F3001494403443446065
:1005C000C668570005FA07FC8C6826EA0C06BC4092
:1005D0003443C4604C68022C01D0122C13D1D408CF
:1005E00000EB8404A346D4F8209054074FEAD46A61
:1005F0000EFA0AF629EA06090E6906FA0AF646EA2A
:100600000906CBF8206006680C7926EA0C0604F08F
:100610000304BC40344304604C68E40065D5364CA8
:10062000266846F480462660246822F0030604F417
:1006300080440094314C3444A446D4F808489607CA
:10064000370F0EFA07F6B4432D4EB04201D1002603
:1006500024E02C4EB04201D101261FE02A4EB042C8
:1006600002D102261AE040E0284EB04201D1032612
:1006700014E0274EB04201D104260FE0254EB042CF
:1006800001D105260AE0244EB04201D1062605E03C
:10069000224EB04201D1072600E00826BE40264384
:1006A000CCF808681E4E34684F689C43FF0300D5A1
:1006B0001C4334601A4C241D26684F689E43BF03B8
:1006C00000D51E432660164E083634684F689C439A
:1006D000FF0200D51C433460114E0C3634684F685D
:1006E0009C43BF0200D51C433460521C102AFFF407
:1006F00045AFBDE8F88F00004438024000300140AB
:10070000000002400004024000080240000C0240C9
:10071000001002400014024000180240001C024079
:10072000003C01400AB1816170470904FBE7000009
:1007300001488068704700001C0000200248816862
:1007400002781144816070471C0000200B4810B5EE
:10075000016841F400710160016841F48061016049
:10076000016841F480710160032000F061F800200D
:1007700000F006F800F024F8002010BD003C024014
:1007800070B50D4D04464FF47A712878B1FBF0F046
:100790000A490968B1FBF0F000F0D4FA48B9102C0E
:1007A00007D200222146501E00F022F800206C6083
:1007B00070BD012070BD00001C000020280000203A
:1007C0000A4808B5016841F480410160006800F4FE
:1007D000804000900548001F016841F08051016091
:1007E000006800F08050009008BD000044380240CE
:1007F000F0B40E4B1B680C46C3F30223C3F107058C
:10080000042D00D90425191D072901D2002300E079
:10081000DB1E012606FA05F1491E214099409E4043
:10082000761E16403143F0BC00F0ADBB0CED00E08D
:10083000064900F0070208684FF6FF03184040EA37
:100840000220034A10430860704700000CED00E0EE
:100850000000FA052DE9F0470E46050065D0DFF8E7
:100860001481D8F80000F7B200F00F00B04207D2B0
:1008700088F80070D8F8000000F00F00B04254D1A2
:1008800028683D4C810712D5400703D5206840F405
:10089000E05020602878000703D5206840F46040CD
:1008A00020602068A96820F0F000084320602878C4
:1008B000C0072DD0304968680839012812D00228B5
:1008C00013D0032811D00968890700292DDA21687F
:1008D00021F0030101432160FFF72AFF814641F225
:1008E000883A0EE009688903EFE709688901ECE7B7
:1008F000FFF71EFFA0EB0901514502D90320BDE817
:10090000F0872068696800F00C00B0EB810FEFD130
:10091000D8F80010404601F00F01B14207D9077026
:10092000006800F00F00B04201D00120E7E728780E
:10093000400705D52068E96820F4E05008432060AE
:100940002878000706D52068296920F4604040EA2D
:10095000C100206000F018F82168084AC1F30311B3
:10096000515CC8400649086006480068FFF708FF68
:100970000020C4E7003C024008380240A8160008E6
:100980002800002020000020154810B5006810F055
:100990000C02144813D04110042A0FD0082A0ED19B
:1009A0000F4C241F2268236802F03F025B0207D528
:1009B0002068C0F38810A0FB010106E0084610BDC6
:1009C0002168C1F38811A1FB00010023FFF7F8FBA8
:1009D0002168C1F30141491C4900B0FBF1F010BD91
:1009E000083802400024F4002DE9F84F04006ED0CE
:1009F0002078DFF83C93C007A9F104054AD009F13B
:100A000004000168C1F38101012908D00068C0F326
:100A1000810002280AD1D9F80000400206D52868D2
:100A2000800337D560680028E1D033E06068B0F516
:100A3000803F10D0B0F5A02F286810D020F480306F
:100A40002860286820F4802028606068A8B1FFF73B
:100A50006FFE06460DE0286840F48030F4E740F46D
:100A600080202860F7E700BFFFF762FE801B642844
:100A700073D828688003F7D50CE0FFF759FE0646C7
:100A800005E000BFFFF754FE801B6428F0D82868FB
:100A90008003F7D42078DFF89C8280074FF0000AAB
:100AA0003ED5A348001D016811F00C0F08D0006866
:100AB000C0F3810002280BD1D9F80000400207D40E
:100AC0002868800716D5E068012800D112E02BE1E4
:100AD000E068B8B10120C8F80000FFF729FE06461B
:100AE00005E000BFFFF724FE801B0228C0D828685D
:100AF0008007F7D52868216920F0F80040EAC10096
:100B000028600DE0C8F800A0FFF712FE064604E0DA
:100B1000FFF70EFE801B02281FD828688007F7D435
:100B20002078000722D5824E83486169703671B102
:100B300001210160FFF7FCFD074604E0FFF7F8FD27
:100B4000C01B022809D830688007F7D50EE0C0F82E
:100B500000A0FFF7EDFD074605E082E0FFF7E8FDA6
:100B6000C01B02287DD830688007F7D42078400762
:100B700068D5DFF8BCB100270BF13C0BDBF80000B7
:100B8000C0000BD4DBF8001041F08051CBF800100E
:100B9000DBF80000012700F080500090674E3068BD
:100BA000C00510D4306840F480703060FFF7C0FD9D
:100BB000009005E0FFF7BCFD0099401A022850D8CC
:100BC0003068C005F6D55A4EA0686C3601280FD0A3
:100BD0000528306810D020F001003060306820F027
:100BE00004003060A068B8B1FFF7A2FD00900FE0EC
:100BF000306840F00100F4E740F004003060F7E7AF
:100C0000FFF796FD0099411A41F28830814266D87B
:100C100030688007F4D50EE0FFF78AFD009007E00A
:100C2000FFF786FD0099411A41F28830814256D87B
:100C300030688007F4D42FB1DBF8001021F0805128
:100C4000CBF80010A069C8B33949091D0968C1F380
:100C5000810102294AD00228504607D0C8F8600016
:100C600000E03CE0FFF764FD04463BE04746C8F87F
:100C70006000FFF75DFD064605E000BFFFF758FD89
:100C8000801B02282BD828688001F7D4D4E90701FB
:100C90000843A16A2A4A490802EB0141626A41EA13
:100CA0008211084394F82C1040EA0161C9F8001041
:100CB00001203866FFF73CFD044606E036E000BF41
:100CC000FFF736FD001B022809D828688001F7D5F8
:100CD0002CE000BFFFF72CFD001B022802D90320E7
:100CE000BDE8F88F28688001F4D41FE00128F7D010
:100CF000D9F80000E26900F48001914214D1226A1F
:100D000000F03F0191420FD147F6C071626A014085
:100D1000914209D1A26A00F44031914204D1E16AC2
:100D200000F07060884201D00120D9E70020D7E7A9
:100D30000438024000004742800E474200700040E5
:100D40000000FFFF10B5401EB0F1807F01D30120ED
:100D500010BD4FF0E02460610F21601700F013F91F
:100D60000020A06107202061002010BDFEE70000E8
:100D70002DE9F04F87B014216846FFF759FA4B4828
:100D8000016841F080010160016801F08001059176
:100D9000016841F001010160016801F00101059164
:100DA000016841F004010160016801F0040105914E
:100DB000016841F002010160016801F00201059142
:100DC000016841F020010160016801F020010591F6
:100DD000016841F040010160016801F040010591A6
:100DE000016841F0100101600068DFF8C4A000F064
:100DF00010000590012228215046FFF793FCDFF8F0
:100E0000B4B0012220215846FFF78CFC40F2024783
:100E1000012239462848FFF785FC4FF42848012273
:100E200041462648FFF77EFC012202212448FFF7B5
:100E300079FC4FF4AA49012249462248FFF772FC87
:100E400028201124012503268DE8710069465046AB
:100E5000FFF78CFB20208DE8710069465846FFF7AC
:100E600085FB01AA009782E8700069461248FFF7E7
:100E70007DFB01AACDF8008082E8700069460F482A
:100E8000FFF774FB02208DE8710069460C48FFF7FC
:100E90006DFB01AACDF8009082E870006946094810
:100EA000FFF764FB07B0BDE8F08F00003038024068
:100EB000000002400008024000040240001402400A
:100EC0000018024000100240FEE7FEE7704770473E
:100ED000FFF734BC30B593B030216846FFF7A8F96E
:100EE00014210CA8FFF7A4F91D480025016841F062
:100EF00080510160006800F080501190194801682D
:100F000041F4804101600068022400F480401190A7
:100F10000120039010200490009406940820CDE94D
:100F20000750A820CDE9090404200B906846FFF77C
:100F30005BFD08B172B6FEE70CA90F2081E8310015
:100F40004FF4A0500F904FF48050109005210CA842
:100F5000FFF780FC002801D072B6FEE713B030BD69
:100F600040380240007000400548016841F47001BB
:100F7000016003494FF0006080390860704700004D
:100F800088ED00E0FEE70907090E002804DB00F108
:100F9000E02080F80014704700F00F0000F1E0201E
:100FA00080F8141D704702E008C8121F08C1002A0B
:100FB000FAD170477047002001E001C1121F002ADA
:100FC000FBD170472DE9FF4F81B091460E98002864
:100FD00028D0002623E04FEAD90000FB06F802984B
:100FE000002530444FF0010B009014E00E980024CF
:100FF0004719019800EBC50A18F807100BFA04F01E
:10100000014204D00AEB0400009900F0CCF9641C02
:10101000082CF1DB6D1CB5EBD90FE7D3761C0498D7
:101020008642D8D305B0BDE8F08F00002DE9F04727
:101030000025DFF83880894682460127002409EB25
:10104000050600BF18F8050007FA04F1084204D0AD
:1010500031460AEB040000F0A6F9641C082CF1DB11
:101060006D1C102DEADBBDE8F0870000B816000803
:101070002DE9FC5F074614460E4600251046FFF793
:1010800090F99FED3D1B53EC112BFFF787F9FFF70C
:1010900099F980463119384600F085F9311B3846F8
:1010A00000F081F93819314600F07DF9381B3146DE
:1010B00030E000BFB8F1000F32DB291B08EB410024
:1010C00000F10508641E6D1CA119E81989468346C4
:1010D00000F069F9781B4946019000F064F9A919FC
:1010E000E0198946009000F05EF94946381B8146B8
:1010F00000F059F9311B8A46584600F054F9514620
:10110000019800F050F9711B8A46009800F04BF9E5
:101110005146484600F047F9A542CBDBBDE8FC9FAD
:1011200008EB450000F103086D1CA119E819894678
:10113000019000F038F94946781B814600F033F9F8
:10114000A919E0198A46834600F02DF9381B51464B
:10115000009000F028F9311B8A46019800F023F92D
:101160005146484600F01FF9711B8946584600F069
:101170001AF949460098CDE7000000000000F43F4E
:101180002DE9F0470D4604469946A3EB0508A3EB6D
:10119000050000EBD073C0F100001746161B00EBF2
:1011A000D07151D43A1B02EBD272B8F1000F25DB9B
:1011B000464512DBA8EB62090BE02946204600F009
:1011C000F2F8B9F1000F02DDA9EB06096D1CC1446C
:1011D000641CBC42F1DDBDE8F087A6EB63070AE0C2
:1011E0002946204600F0DFF8002F02DDA7EB0807B4
:1011F000641C37446D1C4D45F2DDECE782465645D4
:1012000011DBAAEB62080BE02946204600F0CBF880
:10121000B8F1000F02DDA8EB06086D1ED044641C77
:10122000BC42F1DDD7E7A6EB61070AE0294620467C
:1012300000F0B9F8002F02DDA7EB0A07641C374461
:101240006D1E4D45F2DAC6E73A1B5242764202EB7A
:10125000D272B8F1000F24DB464511DBA8EB62091E
:101260000BE02946204600F09EF8B9F1000F02DDA0
:10127000A9EB06096D1CC144641EBC42F1DAAAE761
:10128000A6EB63070AE02946204600F08CF8002F01
:1012900002DDA7EB0807641E37446D1C4D45F2DDE7
:1012A00099E78246564511DBAAEB62080BE0294616
:1012B000204600F078F8B8F1000F02DDA8EB060830
:1012C0006D1ED044641EBC42F1DA84E7A6EB6107D0
:1012D0000AE02946204600F066F8002F02DDA7EB61
:1012E0000A07641E37446D1E4D45F2DA73E70000AD
:1012F0002DE9FF4F83B08B46059910989846002939
:1013000032D0B8F1000F2FD0102803D018282BD1DD
:1013100000202DE0002625E00398174900EBC600C9
:101320000190059800254FF0010A805D01EB001047
:1013300000900098002447190BEB0509A7F580578A
:101340000AFA04F097F8001E014204D001984946B9
:10135000204400F028F8641C082CF1DB6D1C102DD3
:10136000E7DB761C4645D7D307B0BDE8F08F401CBD
:101370004045FCD3F8E70000C816000870B50646E3
:10138000002500240EB1012200E00022294620465B
:1013900000F00EF8641CE4B2802CF3D36D1CEDB2A7
:1013A000402DEED370BDC9B2C0B20122AFF30080B0
:1013B00000F07CB800F0AAB82DE9F047164F0546BA
:1013C00000244FF080084FF480494FF480560022EB
:1013D00031463846FFF7A6F928FA04F0284201D032
:1013E000012200E0002249463846FFF79BF905201C
:1013F00000F014F8012231463846FFF793F9052032
:1014000000F00CF8641C082CE1DB31463846BDE8DE
:10141000F0470022FFF786B900100240A821484398
:10142000800800BF401EFCD2704710B500F026F8BF
:101430003220FFF7F3FF3021002000F0A7F8012051
:10144000FFF7ECFF3021002000F0A0F80120FFF7AB
:10145000E5FF0C21002000F099F80120FFF7DEFFE6
:101460000121002000F092F80120FFF7D7FF0621AC
:10147000BDE81040002000F089B8000010B5094C0C
:10148000012208212046FFF74DF9002220212046A5
:10149000FFF748F90022A114BDE810400248FFF709
:1014A00041B90000000002400010024070B5002465
:1014B000802801D3601E70BD402902D36FF0010067
:1014C00070BD114E00F00705012306EB0111AB4082
:1014D00001EBD00032B1012A07D0022A09D06FF007
:1014E000020070BD0178994301E001781943017051
:1014F00005E000782BB10021084080F0010420466F
:1015000070BD0121F8E700002C0000202DE9F0411A
:101510003621002000F03AF800241B4F5FF001064E
:1015200004F18000C1B2002000F030F880210020DA
:1015300000F02CF80025280904EB401007EB001000
:1015400005F00F014FF0800E10F801C00021084691
:1015500006FA00F212EA0C0F02D02EFA00F3194339
:10156000401C0828F4DB012000F010F86D1CEDB2DF
:10157000202DE0D3641CE4B2202CD1D3BDE8F0418F
:101580003621002000F002B82C00002010B50C46D7
:1015900000B1022040F0F800FFF70EFF04F0F00069
:1015A000FFF70AFF2007BDE81040000EFFF704BF59
:1015B00008B5FFF7CBF8FFF78DFCFFF7D9FB6420E8
:1015C000FEF7C2FFFFF731FF00252D4E102400204B
:1015D000FFF7D4FE20223423114610460095FFF772
:1015E000CFFD202100231F220846FFF741FD25489B
:1015F000FEF729FE0346234A002148200094FFF706
:1016000077FE10231A4600216C200096FFF7DAFCC3
:101610001C48401DFEF717FE1A4A0346521D1021B2
:1016200044200094FFF764FE16480C30FEF70BFED2
:10163000144A03460C32202140200094FFF758FE44
:101640001048001FFEF7FFFD0E4A0346121F30210F
:1016500040200094FFF74CFE0A48C01FFEF7F3FD40
:10166000084A0346D21F302160200094FFF740FE55
:10167000102230217020FFF7D9FCFFF79BFEA6E770
:10168000881600080700002000008000A412080847
:10169000C001E413F007F637F007E413C0010008B7
:1016A000A8148400000000000000000000000000FA
:1016B0000102030406070809000006063048040476
:1016C0000404040448300000000000000000000092
:1016D00000000000000000000000000808080808E2
:1016E0000808000008080000004824241200000038
:1016F00000000000000000000000004848487E2470
:1017000024247E24242400000000103C5252121C89
:1017100030505052523C1010000000222515150D7B
:101720002A585454522200000000000C1212120ACF
:1017300076252919916E00000006040402000000BD
:101740000000000000000000004020101008080801
:1017500008080810102040000002040808101010AB
:1017600010101008080402000000000008086B1C9C
:101770001C6B0808000000000000000000101010A2
:10178000FE1010100000000000000000000000002B
:101790000000000006040402000000000000000039
:1017A0007E000000000000000000000000000000BB
:1017B000000000000606000000004020202010105D
:1017C00008080804040202000000001824424242F3
:1017D0004242424224180000000000101C10101069
:1017E00010101010107C00000000003C42424240EB
:1017F00020100804427E00000000003C42424020CD
:1018000018204042423C00000000002030302824D4
:101810002422FE2020F800000000007E0202021EAA
:1018200022404042221C0000000000182402023A1C
:1018300046424242443800000000007E4220201010
:1018400010080808080800000000003C424242243A
:1018500018244242423C00000000001C2242424246
:10186000625C4040241800000000000000001818CE
:101870000000000018180000000000000000000830
:1018800000000000000808080000004020100804C4
:1018900002040810204000000000000000007E004C
:1018A000007E00000000000000000002040810207C
:1018B00040201008040200000000003C4242462084
:1018C00010101000181800000000001C225A555576
:1018D0005555553A423C0000000000080818141401
:1018E000243C224242E700000000001F2222221E68
:1018F00022424242221F00000000007C42420101BD
:1019000001010142221C00000000001F224242424D
:1019100042424242221F00000000003F4212121EBB
:1019200012120242423F00000000003F4212121E0B
:1019300012120202020700000000003C22220101F4
:1019400001712122221C0000000000E742424242B5
:101950007E42424242E700000000003E08080808BC
:1019600008080808083E00000000007C1010101055
:10197000101010101010110F0000007722120A0E24
:101980000A1212222277000000000007020202025F
:1019900002020202427F000000000077363636362F
:1019A000362A2A2A2A6B0000000000E346464A4AEB
:1019B00052525262624700000000001C2241414125
:1019C00041414141221C00000000003F424242428E
:1019D0003E020202020700000000001C22414141B9
:1019E0004141414D321C60000000003F4242423EF6
:1019F0001212222242C700000000007C4242020470
:101A000018204042423E00000000007F49080808BC
:101A100008080808081C0000000000E74242424293
:101A200042424242423C0000000000E7424222247F
:101A300024141418080800000000006B2A2A2A2A1F
:101A40002A36141414140000000000E7422424185D
:101A50001818242442E70000000000772222141402
:101A600008080808081C00000000007E2120101053
:101A700008040442423F00000078080808080808EB
:101A80000808080808087800000002040404080890
:101A90000810102020204040001E101010101010C0
:101AA0001010101010101E0000182400000000007C
:101AB0000000000000000000000000000000000026
:101AC00000000000000000FF000608000000000009
:101AD0000000000000000000000000000000001CEA
:101AE00022302C22326C0000000000000302021A97
:101AF00026424242261A0000000000000000003882
:101B00004402020244380000000000006040407CB3
:101B10004242424262DC0000000000000000003C43
:101B200042427E02423C0000000000003048083E75
:101B300008080808083E0000000000000000007CC3
:101B400022221C023C42423C000000000302023AF6
:101B50004642424242E700000000000C0C00000E2A
:101B600008080808083E0000000000303000003877
:101B7000202020202020221E0000000003020272EC
:101B8000120A0E1222770000000000080E08080852
:101B900008080808083E0000000000000000007F60
:101BA0009292929292B70000000000000000003B69
:101BB0004642424242E70000000000000000003CB4
:101BC00042424242423C0000000000000000001B74
:101BD00026424242261A0207000000000000005878
:101BE00064424242645840E0000000000000007778
:101BF0004C040404041F0000000000000000007CEE
:101C000042023C40423E0000000000000008083E46
:101C100008080808483000000000000000000063C9
:101C20004242424262DC00000000000000000077F7
:101C3000222214140808000000000000000000DB4D
:101C400091525A2A24240000000000000000006E77
:101C5000241818182476000000000000000000E797
:101C60004224241818080806000000000000007E26
:101C700022100808447E000000C0202020202020E0
:101C8000102020202020C000101010101010101064
:101C900010101010101010100003040404040404A9
:101CA0000804040404040300045A20000000000097
:101CB0000000000000000000D81C00080000002008
:101CC0002C000000A60F0008041D00082C000020B6
:101CD00004080000B60F00083236005341540032A9
:101CE000303231002030322D31350031373A333740
:101CF0002D33300001000000100000000000000043
:041D00000024F400C7
:040000050800018965
:00000001FF
